:100000003AC0000048C0000046C0000044C00000E4
:1000100042C0000040C000003EC000003CC00000E4
:100020003AC0000038C0000036C0000034C00000F4
:1000300032C0000030C000002FC000002CC0000003
:100040002AC0000028C0000026C0000024C0000014
:1000500022C0000020C000001EC000001CC0000024
:100060001AC0000018C0000048454C4C4F20574FA4
:10007000524C442E0A0011241FBECFEFD8E0DEBF41
:10008000CDBF21E0A0E0B1E001C01D92AD32B207CA
:10009000E1F7DDD0E7C0B4CF1F921FB61F92112445
:1000A0008F939F93EF93FF9380912901882319F1F8
:1000B000909128018FEF890F9130D9F4809125011B
:1000C0009091260180FF3FC02C9A8091250190914C
:1000D000260196958795909326018093250180911E
:1000E0002701815080932701811102C010922901BC
:1000F00083E08093280180910401882331F180916D
:100100000301815080930301811115C010920401F5
:1001100010922A01E0912B01F0E080910201EB5F47
:10012000FE4F808380912B018F5F80932B01803263
:1001300010F010922B01FF91EF919F918F911F90E2
:100140001FBE1F9018952C98C0CF80912A0188233C
:1001500001F1909103018FEF890F9130B9F48091F3
:1001600001011B9B05C090910201982B9093020105
:10017000880F8093010180910001815080930001DC
:10018000811103C081E08093040183E08093030127
:10019000D2CF1B99D0CF81E080932A011092020127
:1001A00094E09093030198E0909300018093010103
:1001B000C2CF1092290110922A012C9A249A2398D6
:1001C00084E487BD82E084BD85BDEEE6F0E08081F9
:1001D0008260808316BC0895909129019111FCCF13
:1001E00093E0909328019AE09093270190E0880F84
:1001F000991F9260909326018093250181E080935E
:100200002901089590912C0180912B012FEF3FEF50
:10021000981759F0E92FF0E0EB5FFE4F208130E0B6
:100220009F5F903220F490932C01C90108951092A1
:100230002C01FBCFCF93DF93EC01FE01849121963B
:10024000811103C0DF91CF910895C6DFF6CFB1DFF2
:10025000789488E690E0EEDFD5DF18161906E4F70B
:08026000BBDFFACFF894FFCFD9
:00000001FF
